:100000000C9452000C9464000C9464000C946400F2
:100010000C9464000C9464000C9464000C946400D0
:100020000C9464000C9464000C9464000C946400C0
:100030000C9464000C9464000C9464000C946400B0
:100040000C9485000C9464000C9464000C9464007F
:100050000C9464000C9464000C9464000C94640090
:100060000C9464000C94640000000000250028003B
:100070002B0000000000240027002A0004040404D0
:100080000404040402020202020203030303030342
:10009000010204081020408001020408102001021F
:1000A0000408102011241FBECFEFD8E0DEBFCDBF63
:1000B00021E0A0E0B1E001C01D92A930B207E1F754
:1000C0000E94CF000C9431010C94000090E0FC01E0
:1000D000E057FF4F2491FC01E458FF4F849188239F
:1000E00099F090E0880F991FFC01EE58FF4FA59101
:1000F000B491FC01E859FF4F859194918FB7F89422
:10010000EC91E22BEC938FBF08951F920F920FB6E4
:100110000F9211242F933F938F939F93AF93BF938D
:100120008091050190910601A0910701B09108010D
:100130003091040123E0230F2D3720F40196A11DF7
:10014000B11D05C026E8230F0296A11DB11D209305
:1001500004018093050190930601A0930701B093D9
:1001600008018091000190910101A0910201B091DC
:1001700003010196A11DB11D80930001909301011F
:10018000A0930201B0930301BF91AF919F918F9112
:100190003F912F910F900FBE0F901F90189578945C
:1001A00084B5826084BD84B5816084BD85B582607C
:1001B00085BD85B5816085BD80916E00816080932D
:1001C0006E00109281008091810082608093810096
:1001D00080918100816080938100809180008160A6
:1001E000809380008091B10084608093B100809101
:1001F000B00081608093B00080917A008460809329
:100200007A0080917A00826080937A0080917A00EF
:10021000816080937A0080917A00806880937A0070
:100220001092C10089E00E9466008AE00E94660088
:100230008BE00E9466008CE00E94660081E40E94D0
:10024000660082E40E94660083E40E94660084E403
:100250000E946600C0E0D0E02097F1F30E94000009
:06026000FBCFF894FFCF74
:00000001FF
