:100000000C9462000C948A000C948A000C948A0070
:100010000C948A000C948A000C948A000C948A0038
:100020000C948A000C948A000C948A000C948A0028
:100030000C948A000C948A000C948A000C948A0018
:100040000C9456040C948A000C9424040C94FE0323
:100050000C948A000C948A000C948A000C948A00F8
:100060000C948A000C948A000000000024002700F1
:100070002A0000000000250028002B0000000000DE
:1000800023002600290004040404040404040202DA
:100090000202020203030303030301020408102007
:1000A0004080010204081020010204081020000012
:1000B0000008000201000003040700000000000027
:1000C0000000CC0511241FBECFEFD8E0DEBFCDBFAE
:1000D00021E0A4E4B1E001C01D92A03FB207E1F726
:1000E00011E0A0E0B1E0E2EFF0E102C005900D9276
:1000F000A434B107D9F710E0C2E6D0E004C02197DC
:10010000FE010E946506C136D107C9F70E94A0040E
:100110000C9477080C940000CF92DF92EF92FF923C
:100120000F931F93CF93DF936C017A018B01C0E093
:10013000D0E0CE15DF0589F0D8016D918D01D60193
:10014000ED91FC910190F081E02DC6010995892B7C
:1001500011F47E0102C02196ECCFC701DF91CF914F
:100160001F910F91FF90EF90DF90CF900895089529
:1001700080E090E00895FC01538D448D252F30E000
:10018000842F90E0821B930B541710F0CF960895A4
:1001900001970895FC01918D828D981761F0828DF1
:1001A000DF01A80FB11D5D968C91928D9F5F9F73AB
:1001B000928F90E008958FEF9FEF0895FC01918D4D
:1001C000828D981731F0828DE80FF11D858D90E0BA
:1001D00008958FEF9FEF0895FC01918D228D892F57
:1001E00090E0805C9F4F821B91098F73992708953F
:1001F0008FE491E00E94EC0021E0892B09F420E0DB
:10020000822F0895FC01848DDF01A80FB11DA35A30
:10021000BF4F2C91848D90E001968F739927848F26
:10022000A689B7892C93A089B1898C9180648C931D
:10023000938D848D981306C00288F389E02D808108
:100240008F7D80830895EF92FF920F931F93CF933A
:10025000DF93EC0181E0888F9B8D8C8D981305C016
:10026000E889F989808185FD24C0F62E0B8D10E088
:100270000F5F1F4F0F731127E02E8C8DE8120CC0FB
:100280000FB607FCFACFE889F989808185FFF5CFA1
:10029000CE010E940201F1CF8B8DFE01E80FF11D0E
:1002A000E35AFF4FF0820B8FEA89FB8980818062DD
:1002B00007C0EE89FF896083E889F98980818064BD
:1002C000808381E090E0DF91CF911F910F91FF90AB
:1002D000EF900895CF93DF93EC01888D8823C9F0C8
:1002E000EA89FB89808185FD05C0A889B9898C913F
:1002F00086FD0FC00FB607FCF5CF808185FFF2CFDA
:10030000A889B9898C9185FFEDCFCE010E940201A9
:10031000E7CFDF91CF91089580E090E0892B29F01D
:100320000E94F80081110C9400000895833081F040
:1003300028F4813099F08230A1F008958730A9F037
:100340008830B9F08430D1F4809180008F7D03C073
:10035000809180008F7780938000089584B58F7797
:1003600002C084B58F7D84BD08958091B0008F77E1
:1003700003C08091B0008F7D8093B00008951F93DB
:10038000CF93DF93282F30E0F901E255FF4F84919E
:10039000F901E656FF4FD491F901EA57FF4FC49196
:1003A000CC23C9F0162F81110E949601EC2FF0E0AA
:1003B000EE0FFF1FEE58FF4FA591B4918FB7F89441
:1003C000111105C09C91ED2FE095E92302C0EC913D
:1003D000ED2BEC938FBFDF91CF911F910895CF93B9
:1003E000DF9390E0FC01E656FF4F2491FC01EA57B1
:1003F000FF4F8491882361F190E0880F991FFC01E1
:10040000E859FF4FC591D491FC01EE58FF4FA591DB
:10041000B491611109C09FB7F89488812095822317
:100420008883EC912E230BC0623061F49FB7F8945F
:100430003881822F809583238883EC912E2B2C93F7
:100440009FBF06C08FB7F894E8812E2B28838FBFFB
:10045000DF91CF9108951F93CF93DF93182FEB0176
:1004600061E00E94EF01209711F460E004C0CF3FEB
:10047000D10539F461E0812FDF91CF911F910C9468
:10048000BF01E12FF0E0E255FF4FE491E330F9F0D6
:1004900048F4E130B9F0E230A1F584B5806284BD62
:1004A000C8BD34C0E730E9F0E83019F1E43049F56F
:1004B00080918000806280938000D0938B00C093F5
:1004C0008A0024C084B5806884BDC7BD1FC08091E8
:1004D0008000806880938000D0938900C09388005A
:1004E00015C08091B00080688093B000C093B300C5
:1004F0000DC08091B00080628093B000C093B400C2
:1005000005C0C038D1050CF0B5CFAFCFDF91CF918A
:100510001F9108958E3008F08E508770806480930C
:100520007C0080917A00806480937A0080917A00C8
:1005300086FDFCCF809178002091790090E0922B8D
:1005400008953FB7F8948091490190914A01A09194
:100550004B01B0914C0126B5A89B05C02F3F19F067
:100560000196A11DB11D3FBFBA2FA92F982F882733
:10057000820F911DA11DB11DBC01CD0142E0660F8E
:10058000771F881F991F4A95D1F70895BC018AE00B
:100590000E942B0261E08CE00C94BF01BC018BE057
:1005A0000E942B0261E08DE00C94BF01009769F07E
:1005B000FC0101900020E9F73197AF01481B590B6E
:1005C000BC018FE491E00C948C0080E090E00895F1
:1005D0000E9462080F931F93CF93DF93EC018881F1
:1005E0009981009729F02A813B812617370788F4E3
:1005F0008B016F5F7F4F0E949807009761F099838E
:1006000088831B830A832C813D81232B11F4FC01F9
:10061000108281E001C080E0DF91CF911F910F91A6
:100620000895CF92DF92EF92FF920F931F93CF9393
:10063000DF93CDB7DEB728970FB6F894DEBF0FBEB5
:10064000CDBF8C01CB014AE09E012F5F3F4F690176
:10065000B9010E94F905F60101900020E9F73197F0
:10066000EC19FD09D8011496ED90FC901597309780
:10067000B9F0EE0EFF1EB701C8010E94EA028823FE
:1006800081F0F8012081318184819581B601820F4A
:10069000931F0E947008D8011596FC92EE92149751
:1006A00081E028960FB6F894DEBF0FBECDBFDF9174
:1006B000CF911F910F91FF90EF90DF90CF90089511
:1006C00060E070E08BE00E942B0260E08DE00E9411
:1006D000BF0160E070E08AE00E942B0260E08CE0E5
:1006E0000C94BF01EF92FF920F931F93CF93DF9370
:1006F00000D000D000D0CDB7DEB7182F092F0E9450
:100700008A02F82EE92E1A8219821C821B821E820E
:100710001D8267E070E0CE0101960E94EA02298105
:100720003A8181110DC02115310519F0C9010E94CE
:1007300000071A8219821E821D821C821B8209C038
:1007400087E090E09E838D8368E171E0C9010E949B
:100750007008612F702FCE0101960E9411030D8148
:100760001E81085F1F4FB801CE0101960E94EA0268
:10077000882361F029813A818D819E8160E271E058
:10078000820F931F0E9470081E830D836F2D7E2D94
:10079000CE0101960E9411034D815E8169817A81AB
:1007A0008FE491E00E948C0042E050E069E271E049
:1007B0008FE491E00E948C008F2D0E948A028C01B0
:1007C00089819A810E94000781E0093512400CF46A
:1007D00080E026960FB6F894DEBF0FBECDBFDF9146
:1007E000CF911F910F91FF90EF90089582E090E0DC
:1007F0000C94720381E090E00C9472031F920F92AC
:100800000FB60F9211242F933F934F935F936F93E3
:100810007F938F939F93AF93BF93EF93FF938FE457
:1008200091E00E940201FF91EF91BF91AF919F91E2
:100830008F917F916F915F914F913F912F910F9089
:100840000FBE0F901F9018951F920F920FB60F9228
:1008500011242F938F939F93EF93FF93E0915F0168
:10086000F09160018081E0916501F091660182FD67
:1008700012C09081809168018F5F8F732091690110
:10088000821751F0E0916801F0E0E15BFE4F958F37
:100890008093680101C08081FF91EF919F918F91BA
:1008A0002F910F900FBE0F901F9018951F920F92CF
:1008B0000FB60F9211242F933F938F939F93AF9373
:1008C000BF938091450190914601A0914701B0915D
:1008D00048013091440123E0230F2D3720F4019685
:1008E000A11DB11D05C026E8230F0296A11DB11D53
:1008F000209344018093450190934601A0934701C2
:10090000B09348018091490190914A01A0914B0117
:10091000B0914C010196A11DB11D809349019093A6
:100920004A01A0934B01B0934C01BF91AF919F91AD
:100930008F913F912F910F900FBE0F901F901895A0
:10094000789484B5826084BD84B5816084BD85B5AA
:10095000826085BD85B5816085BD80916E008160B6
:1009600080936E001092810080918100826080935C
:10097000810080918100816080938100809180005E
:100980008160809380008091B10084608093B10089
:100990008091B00081608093B00080917A00846083
:1009A00080937A0080917A00826080937A008091AF
:1009B0007A00816080937A0080917A0080688093C9
:1009C0007A001092C100E0915F01F091600182E035
:1009D0008083E0915B01F0915C011082E0915D0108
:1009E000F0915E018FEC808310926701E0916301CA
:1009F000F091640186E08083E0916101F0916201F1
:100A0000808180618083E0916101F0916201808149
:100A100088608083E0916101F0916201808180684B
:100A20008083E0916101F091620180818F7D8083FC
:100A3000C9E061E08C2F0E94EF01CF5FCD30C9F794
:100A400060E088E00E94EF01C1E460E08C2F0E942A
:100A5000EF01CF5FC534C9F7C6EBD0E002EA10E082
:100A60003EE8E32E30E0F32ECC24C394FE018491C3
:100A7000F801B490F701D490DD2009F43BC0811156
:100A80000E9496018D2D90E0880F991F84589F4FEA
:100A9000FC01A591B4918C91B82261F10E94A10250
:100AA0002B013C0184EF882E99249394A12CB12C26
:100AB0000E94A102DC01CB0184199509A609B7099E
:100AC000883E9340A105B10558F0F1E08F1A9108D6
:100AD000A108B10828EE420E23E0521E611C711CD1
:100AE00081149104A104B10419F780914E018C2561
:100AF00080934E0180914E01882361F00E94FA0399
:100B0000882369F00E94F603882349F08CE291E083
:100B10000E94D6020E9460030E948C01A7CF0E940F
:100B2000FA03882321F00E94F603882399F00E949B
:100B3000FA0381111AC00E94F6038823B1F086E4FB
:100B400090E00E94CE0288E290E00E94C60287E315
:100B500091E01DC086E490E00E94C60288E290E029
:100B60000E94CE0281E391E012C00E94FA0381113B
:100B7000D3CF0E94F6038111CFCF86E490E00E948C
:100B8000CE0286E490E00E94C6028CE391E00E94CF
:100B9000D60210924D01C0CFEFE4F1E01382128231
:100BA00088EE93E0A0E0B0E084839583A683B783CA
:100BB0008AE091E09183808385EC90E0958784873B
:100BC00084EC90E09787868780EC90E0918B808B17
:100BD00081EC90E0938B828B82EC90E0958B848B00
:100BE00086EC90E0978B868B118E128E138E148E6E
:100BF0000895BB274A3031F4992322F4BDE2909541
:100C000081959F4F0C940506BB27FB015527AA270A
:100C1000880F991FAA1FA41710F0A41B8395505189
:100C2000B9F7A05DAA3308F0A95DA193009779F701
:100C3000B111B1931192CB010C941E06DC01FC01A1
:100C4000672F71917723E1F7329704C07C916D9300
:100C500070836291AE17BF07C8F308952F923F9239
:100C60004F925F926F927F928F929F92AF92BF92BC
:100C7000CF92DF92EF92FF920F931F93CF93DF9368
:100C8000CDB7DEB7CA1BDB0B0FB6F894DEBF0FBEC5
:100C9000CDBF09942A88398848885F846E847D8412
:100CA0008C849B84AA84B984C884DF80EE80FD8014
:100CB0000C811B81AA81B981CE0FD11D0FB6F8948A
:100CC000DEBF0FBECDBFED010895EE0FFF1F0590F3
:100CD000F491E02D0994CF93DF938230910510F4C5
:100CE00082E090E0E091EE01F091EF0120E030E051
:100CF000C0E0D0E0309711F1408151814817590789
:100D0000C0F04817590761F482819381209719F048
:100D10009B838A832BC09093EF018093EE0126C0C2
:100D20002115310519F04217530718F49A01BE0135
:100D3000DF01EF010280F381E02DDCCF21153105C9
:100D400009F1281B390B2430310590F412968D914E
:100D50009C9113976115710521F0FB0193838283A8
:100D600004C09093EF018093EE01FD01329644C0E0
:100D7000FD01E20FF31F81939193225031092D93CE
:100D80003C933AC02091EC013091ED01232B41F4CA
:100D900020910201309103013093ED012093EC0189
:100DA00020910001309101012115310541F42DB749
:100DB0003EB74091040150910501241B350BE09191
:100DC000EC01F091ED01E217F307A0F42E1B3F0BAD
:100DD0002817390778F0AC014E5F5F4F24173507AD
:100DE00048F04E0F5F1F5093ED014093EC0181934B
:100DF000919302C0E0E0F0E0CF01DF91CF91089540
:100E00000F931F93CF93DF93009709F48CC0FC01DD
:100E10003297138212820091EE011091EF010115B9
:100E2000110581F420813181820F931F2091EC0103
:100E30003091ED012817390779F5F093ED01E09332
:100E4000EC0171C0D80140E050E0AE17BF0750F48C
:100E500012962D913C911397AD012115310509F1A1
:100E6000D901F3CF9D01DA0133832283608171813F
:100E7000860F971F8217930769F4EC012881398147
:100E8000260F371F2E5F3F4F318320838A819B813E
:100E900093838283452B29F4F093EF01E093EE01D5
:100EA00042C01396FC93EE931297ED01499159912C
:100EB0009E01240F351FE217F30771F480819181A1
:100EC000840F951F029611969C938E938281938135
:100ED00013969C938E931297E0E0F0E0D80112965F
:100EE0008D919C911397009719F0F8018C01F6CF22
:100EF0008D919C9198012E5F3F4F820F931F2091FF
:100F0000EC013091ED012817390769F4309729F485
:100F10001092EF011092EE0102C013821282109320
:100F2000ED010093EC01DF91CF911F910F91089596
:100F3000A0E0B0E0EEE9F7E00C943206EC01009797
:100F400021F4CB010E946B06B8C0FC01E60FF71F2D
:100F50009C0122503109E217F30708F4ACC0D90113
:100F60000D911C91119706171707B0F00530110568
:100F700008F49FC0C80104978617970708F499C022
:100F800002501109061B170B019311936D937C936B
:100F9000CF010E9400078DC05B01A01AB10A4C016D
:100FA000800E911EA091EE01B091EF0140E050E063
:100FB000E12CF12C109709F44AC0A815B905D1F518
:100FC0006D907C901197630182E0C80ED11CCA1409
:100FD000DB0480F1A3014A195B096A0182E0C80EB3
:100FE000D11C1296BC9012971396AC91B5E0CB161B
:100FF000D10440F0B282A38351834083D9016D9321
:101000007C930AC00E5F1F4FC301800F911FF9012F
:1010100091838083EB2DFA2FE114F10431F0D70195
:101020001396FC93EE93129744C0F093EF01E09374
:10103000EE013FC08D919C9111974817590708F414
:10104000AC017D0112960D90BC91A02DB3CF809183
:10105000EC019091ED0188159905E1F446175707C9
:10106000C8F48091000190910101009741F48DB77F
:101070009EB74091040150910501841B950BE81720
:10108000F907C8F4F093ED01E093EC01F9017183E5
:1010900060830FC0CB010E946B067C01009759F062
:1010A000A801BE010E946708CE010E940007C70187
:1010B00004C0CE0102C080E090E0CDB7DEB7EEE024
:1010C0000C944E0681E090E0F8940C947708FB01B4
:1010D000DC0102C001900D9241505040D8F70895B4
:1010E000FB01DC0101900D920020E1F70895F894D6
:0210F000FFCF30
:1010F2000000F00180000000000023018C00BB0012
:101102006A01EC00CA00DE0053656E736F72200044
:101112002053746174757320000D0A0053746F704C
:10112200005269676874004C65667400466F727796
:041132006172640082
:107E0000112484B714BE81FFF0D085E080938100F7
:107E100082E08093C00088E18093C10086E0809377
:107E2000C20080E18093C4008EE0C9D0259A86E02C
:107E300020E33CEF91E0309385002093840096BBD3
:107E4000B09BFECF1D9AA8958150A9F7CC24DD24C4
:107E500088248394B5E0AB2EA1E19A2EF3E0BF2EE7
:107E6000A2D0813461F49FD0082FAFD0023811F036
:107E7000013811F484E001C083E08DD089C08234E0
:107E800011F484E103C0853419F485E0A6D080C0E4
:107E9000853579F488D0E82EFF2485D0082F10E0AE
:107EA000102F00270E291F29000F111F8ED06801E7
:107EB0006FC0863521F484E090D080E0DECF843638
:107EC00009F040C070D06FD0082F6DD080E0C81688
:107ED00080E7D80618F4F601B7BEE895C0E0D1E017
:107EE00062D089930C17E1F7F0E0CF16F0E7DF06D8
:107EF00018F0F601B7BEE89568D007B600FCFDCFD4
:107F0000A601A0E0B1E02C9130E011968C91119780
:107F100090E0982F8827822B932B1296FA010C0160
:107F200087BEE89511244E5F5F4FF1E0A038BF0790
:107F300051F7F601A7BEE89507B600FCFDCF97BE46
:107F4000E89526C08437B1F42ED02DD0F82E2BD052
:107F50003CD0F601EF2C8F010F5F1F4F84911BD097
:107F6000EA94F801C1F70894C11CD11CFA94CF0C13
:107F7000D11C0EC0853739F428D08EE10CD085E9AC
:107F80000AD08FE07ACF813511F488E018D01DD067
:107F900080E101D065CF982F8091C00085FFFCCF94
:107FA0009093C60008958091C00087FFFCCF809118
:107FB000C00084FD01C0A8958091C6000895E0E648
:107FC000F0E098E1908380830895EDDF803219F02E
:107FD00088E0F5DFFFCF84E1DECF1F93182FE3DFCA
:107FE0001150E9F7F2DF1F91089580E0E8DFEE27F6
:047FF000FF270994CA
:027FFE00040479
:0400000300007E007B
:00000001FF