:100000000C9462000C948A000C948A000C948A0070
:100010000C948A000C948A000C948A000C948A0038
:100020000C948A000C948A000C948A000C948A0028
:100030000C948A000C948A000C948A000C948A0018
:100040000C9419050C948A000C94E7040C94C104D8
:100050000C948A000C948A000C948A000C948A00F8
:100060000C948A000C948A000000000024002700F1
:100070002A0000000000250028002B0000000000DE
:1000800023002600290004040404040404040202DA
:100090000202020203030303030301020408102007
:1000A0004080010204081020010204081020000012
:1000B0000008000201000003040700000000000027
:1000C0000000840611241FBECFEFD8E0DEBFCDBFF5
:1000D00011E0A0E0B1E0E0ECFDE002C005900D927F
:1000E000AC3BB107D9F722E0ACEBB1E001C01D9207
:1000F000AE36B207E1F710E0C2E6D0E004C02197C7
:10010000FE010E94D306C136D107C9F70E946305DC
:100110000C94DE060C940000CF92DF92EF92FF92D7
:100120000F931F93CF93DF936C017A018B01C0E093
:10013000D0E0CE15DF0589F0D8016D918D01D60193
:10014000ED91FC910190F081E02DC6010995892B7C
:1001500011F47E0102C02196ECCFC701DF91CF914F
:100160001F910F91FF90EF90DF90CF900895089529
:1001700080E090E00895FC01538D448D252F30E000
:10018000842F90E0821B930B541710F0CF960895A4
:1001900001970895FC01918D828D981761F0828DF1
:1001A000DF01A80FB11D5D968C91928D9F5F9F73AB
:1001B000928F90E008958FEF9FEF0895FC01918D4D
:1001C000828D981731F0828DE80FF11D858D90E0BA
:1001D00008958FEF9FEF0895FC01918D228D892F57
:1001E00090E0805C9F4F821B91098F73992708953F
:1001F00081ED91E00E94EC0021E0892B09F420E0E0
:10020000822F0895FC01848DDF01A80FB11DA35A30
:10021000BF4F2C91848D90E001968F739927848F26
:10022000A689B7892C93A089B1898C9180648C931D
:10023000938D848D981306C00288F389E02D808108
:100240008F7D80830895EF92FF920F931F93CF933A
:10025000DF93EC0181E0888F9B8D8C8D981305C016
:10026000E889F989808185FD24C0F62E0B8D10E088
:100270000F5F1F4F0F731127E02E8C8DE8120CC0FB
:100280000FB607FCFACFE889F989808185FFF5CFA1
:10029000CE010E940201F1CF8B8DFE01E80FF11D0E
:1002A000E35AFF4FF0820B8FEA89FB8980818062DD
:1002B00007C0EE89FF896083E889F98980818064BD
:1002C000808381E090E0DF91CF911F910F91FF90AB
:1002D000EF900895CF93DF93EC01888D8823C9F0C8
:1002E000EA89FB89808185FD05C0A889B9898C913F
:1002F00086FD0FC00FB607FCF5CF808185FFF2CFDA
:10030000A889B9898C9185FFEDCFCE010E940201A9
:10031000E7CFDF91CF91089580E090E0892B29F01D
:100320000E94F80081110C9400000895833081F040
:1003300028F4813099F08230A1F008958730A9F037
:100340008830B9F08430D1F4809180008F7D03C073
:10035000809180008F7780938000089584B58F7797
:1003600002C084B58F7D84BD08958091B0008F77E1
:1003700003C08091B0008F7D8093B00008951F93DB
:10038000CF93DF93282F30E0F901E255FF4F84919E
:10039000F901E656FF4FD491F901EA57FF4FC49196
:1003A000CC23C9F0162F81110E949601EC2FF0E0AA
:1003B000EE0FFF1FEE58FF4FA591B4918FB7F89441
:1003C000111105C09C91ED2FE095E92302C0EC913D
:1003D000ED2BEC938FBFDF91CF911F910895CF93B9
:1003E000DF9390E0FC01E656FF4F2491FC01EA57B1
:1003F000FF4F8491882361F190E0880F991FFC01E1
:10040000E859FF4FC591D491FC01EE58FF4FA591DB
:10041000B491611109C09FB7F89488812095822317
:100420008883EC912E230BC0623061F49FB7F8945F
:100430003881822F809583238883EC912E2B2C93F7
:100440009FBF06C08FB7F894E8812E2B28838FBFFB
:10045000DF91CF9108951F93CF93DF93182FEB0176
:1004600061E00E94EF01209711F460E004C0CF3FEB
:10047000D10539F461E0812FDF91CF911F910C9468
:10048000BF01E12FF0E0E255FF4FE491E330F9F0D6
:1004900048F4E130B9F0E230A1F584B5806284BD62
:1004A000C8BD34C0E730E9F0E83019F1E43049F56F
:1004B00080918000806280938000D0938B00C093F5
:1004C0008A0024C084B5806884BDC7BD1FC08091E8
:1004D0008000806880938000D0938900C09388005A
:1004E00015C08091B00080688093B000C093B300C5
:1004F0000DC08091B00080628093B000C093B400C2
:1005000005C0C038D1050CF0B5CFAFCFDF91CF918A
:100510001F9108958E3008F08E508770806480930C
:100520007C0080917A00806480937A0080917A00C8
:1005300086FDFCCF809178002091790090E0922B8D
:1005400008953FB7F8948091CB019091CC01A09190
:10055000CD01B091CE0126B5A89B05C02F3F19F063
:100560000196A11DB11D3FBFBA2FA92F982F882733
:10057000820F911DA11DB11DBC01CD0142E0660F8E
:10058000771F881F991F4A95D1F708958F929F92E0
:10059000AF92BF92CF92DF92EF92FF926B017C01FC
:1005A0000E94A1024B015C01C114D104E104F104D9
:1005B000F1F00E94A102DC01CB0188199909AA0976
:1005C000BB09883E9340A105B10570F321E0C21A32
:1005D000D108E108F10888EE880E83E0981EA11C7E
:1005E000B11CC114D104E104F10419F7DDCFFF906F
:1005F000EF90DF90CF90BF90AF909F908F90089535
:10060000BC018AE00E942B0261E08CE00C94BF01E7
:100610006B5F7F4F882329F08BE00E942B0261E003
:1006200004C08BE00E942B0260E08DE00C94BF01BF
:10063000009769F0FC0101900020E9F73197AF01C4
:10064000481B590BBC0181ED91E00C948C0080E0BB
:1006500090E00895CF93DF930E941803EC0182E1AC
:1006600091E00E9418038C0F9D1FDF91CF91089598
:100670008F929F92AF92BF92CF92DF92EF92FF92B2
:100680000F931F93CF93DF93CDB7DEB7A1970FB62C
:10069000F894DEBF0FBECDBF6C01990FEE08FF08C6
:1006A000F7FE31C0E091D101F091D2010190F081CB
:1006B000E02D6DE281ED91E009958C012227332731
:1006C000A9012C193D094E095F0919A2CE01819695
:1006D0007C019AE0892E912CA12CB12CCA01B90180
:1006E000A50194010E94B106605DF70162937F014C
:1006F000211531054105510589F7CF010E941803E5
:10070000080F191F1EC0A701960119A28E010F5DC7
:100710001F4F8AE0C82ED12CE12CF12CCA01B9015F
:10072000A70196010E94B106605DF80162938F01F6
:10073000211531054105510589F7CF010E941803A4
:100740008C0182E191E00E941803800F911FA19615
:100750000FB6F894DEBF0FBECDBFDF91CF911F91D2
:100760000F91FF90EF90DF90CF90BF90AF909F9050
:100770008F900895CF92DF92EF92FF92CF938FB731
:10078000F894C090C701D090C801E090C901F090E2
:10079000CA018FBF82E00E948A02C1E0893592407F
:1007A0000CF4C0E085E191E00E942A038C2F90E0D8
:1007B0000E94380387E291E00E942A038091C501DC
:1007C00090E00E9438038AE391E00E942A0382E0CD
:1007D0000E948A020E9438038091C1019091C20157
:1007E000A091C301B091C401B701A601481B590BE8
:1007F0006A0B7B0B4F3151056105710568F08091E3
:10080000C501C092C101D092C201E092C301F09231
:10081000C401C093C50114C0892B8A2B8B2B21F0F6
:100820008091C50181110AC0C092C101D092C2015C
:10083000E092C301F092C401C093C5018091C5014B
:10084000CF91FF90EF90DF90CF900895CF92DF92FD
:10085000EF92FF92CF938FB7F894C090C701D090DA
:10086000C801E090C901F090CA018FBF81E00E94E9
:100870008A02C1E0893592400CF4C0E087E491E03F
:100880000E942A038C2F90E00E94380389E591E0B2
:100890000E942A038091C00190E00E9438038CE6F8
:1008A00091E00E942A0381E00E948A020E9438039C
:1008B0008091BC019091BD01A091BE01B091BF019A
:1008C000B701A601481B590B6A0B7B0B4F31510531
:1008D0006105710568F08091C001C092BC01D092A1
:1008E000BD01E092BE01F092BF01C093C0011DC0E6
:1008F000892B8A2B8B2B21F08091C00181110AC09A
:10090000C092BC01D092BD01E092BE01F092BF0145
:10091000C093C00189E591E00E942A038091C00143
:1009200090E00E9438038091C001CF91FF90EF903A
:10093000DF90CF90089561E070E081E00E940803AD
:1009400081E090E00C9400036CE370E080E00E9492
:1009500008038CE390E00C9400038CE390E00E9489
:1009600000036CE370E080E00C9408036CE370E03B
:1009700081E00E9408038CE390E00C9400030E9445
:10098000D9061F920F920FB60F9211242F933F9307
:100990004F935F936F937F938F939F93AF93BF9387
:1009A000EF93FF9381ED91E00E940201FF91EF919F
:1009B000BF91AF919F918F917F916F915F914F9177
:1009C0003F912F910F900FBE0F901F9018951F927F
:1009D0000F920FB60F9211242F938F939F93EF9343
:1009E000FF93E091E101F091E2018081E091E70164
:1009F000F091E80182FD12C090818091EA018F5F41
:100A00008F732091EB01821751F0E091EA01F0E041
:100A1000EF52FE4F958F8093EA0101C08081FF91D4
:100A2000EF919F918F912F910F900FBE0F901F907C
:100A300018951F920F920FB60F9211242F933F9388
:100A40008F939F93AF93BF938091C7019091C801FB
:100A5000A091C901B091CA013091C60123E0230FD2
:100A60002D3720F40196A11DB11D05C026E8230FE6
:100A70000296A11DB11D2093C6018093C7019093DA
:100A8000C801A093C901B093CA018091CB01909194
:100A9000CC01A091CD01B091CE010196A11DB11D57
:100AA0008093CB019093CC01A093CD01B093CE0164
:100AB000BF91AF919F918F913F912F910F900FBE5A
:100AC0000F901F901895789484B5826084BD84B58A
:100AD000816084BD85B5826085BD85B5816085BD39
:100AE00080916E00816080936E00109281008091F1
:100AF0008100826080938100809181008160809379
:100B00008100809180008160809380008091B1009D
:100B100084608093B1008091B00081608093B000C8
:100B200080917A00846080937A0080917A0082605C
:100B300080937A0080917A00816080937A0080911E
:100B40007A00806880937A001092C100E091E10100
:100B5000F091E20182E08083E091DD01F091DE011D
:100B60001082E091DF01F091E0018FEC8083109220
:100B7000E901E091E501F091E60186E08083E091F2
:100B8000E301F091E401808180618083E091E301E1
:100B9000F091E401808188608083E091E301F0912D
:100BA000E401808180688083E091E301F091E401B9
:100BB00080818F7D8083C9E061E08C2F0E94EF01EE
:100BC000CF5FCD30C9F760E088E00E94EF01C1E45B
:100BD00060E08C2F0E94EF01CF5FC534C9F7C6EBF0
:100BE000D0E002EA10E03EE8E32E30E0F32E61E0D0
:100BF00089E00E94BF0168EE73E080E090E00E940F
:100C0000C60260E089E00E94BF01FE018491F80104
:100C1000C490F701D490DD2079F081110E949601F3
:100C20008D2D90E0880F991F84589F4FFC01A5914E
:100C3000B4918C91C82281F58091D001882339F13B
:100C400089E791E00E942A030E942604882389F103
:100C50000E94BA03882369F184EA91E00E942A0382
:100C60000E94AD0464EF71E080E090E00E94C60253
:100C70000E94A40468EC70E080E090E00E94C6024C
:100C80000E94B60489E791E00E942A0302C00E94F4
:100C90009B040E948C01ABCF64EF71E080E090E098
:100CA0000E94C6029091D00181E089278093D001F3
:100CB000C3CF0E942604882321F00E94BA03882310
:100CC00069F00E94260481110EC00E94BA03882395
:100CD00051F00E94AD048FEA91E011C00E94A4047B
:100CE00089EA91E00CC00E9426048111CBCF0E94BA
:100CF000BA038111C7CF0E94B60484EB91E00E9431
:100D00002A031092CF01BECFE1EDF1E013821282EF
:100D100088EE93E0A0E0B0E084839583A683B78358
:100D200084E091E09183808385EC90E095878487CF
:100D300084EC90E09787868780EC90E0918B808BA5
:100D400081EC90E0938B828B82EC90E0958B848B8E
:100D500086EC90E0978B868B118E128E138E148EFC
:100D60000895A1E21A2EAA1BBB1BFD010DC0AA1FEC
:100D7000BB1FEE1FFF1FA217B307E407F50720F004
:100D8000A21BB30BE40BF50B661F771F881F991F7F
:100D90001A9469F760957095809590959B01AC01C8
:100DA000BD01CF010895EE0FFF1F0590F491E02DD6
:100DB000099481E090E0F8940C94DE06F894FFCF5B
:100DC0000000000023018C00BB006A01EC00CA0097
:100DD000DE000D0A0043757272656E7420737461D3
:100DE00074757320323A0050726576696F7573209E
:100DF00073746174757320323A00416E616C6F6771
:100E00005265616420320043757272656E7420739E
:100E1000746174757320313A0050726576696F752C
:100E2000732073746174757320313A00416E616C84
:100E30006F67526561642031005F5F5F5F5F5F5F76
:100E40005F5F5F5F5F5F5F5F5F5F5F5F5F5F5F5FB2
:100E50005F5F5F5F5F5F5F5F5F5F5F5F5F5F5F5FA2
:100E60005F5F5F0053746F70005269676874004C75
:0C0E700065667400466F72776172640062
:107E0000112484B714BE81FFF0D085E080938100F7
:107E100082E08093C00088E18093C10086E0809377
:107E2000C20080E18093C4008EE0C9D0259A86E02C
:107E300020E33CEF91E0309385002093840096BBD3
:107E4000B09BFECF1D9AA8958150A9F7CC24DD24C4
:107E500088248394B5E0AB2EA1E19A2EF3E0BF2EE7
:107E6000A2D0813461F49FD0082FAFD0023811F036
:107E7000013811F484E001C083E08DD089C08234E0
:107E800011F484E103C0853419F485E0A6D080C0E4
:107E9000853579F488D0E82EFF2485D0082F10E0AE
:107EA000102F00270E291F29000F111F8ED06801E7
:107EB0006FC0863521F484E090D080E0DECF843638
:107EC00009F040C070D06FD0082F6DD080E0C81688
:107ED00080E7D80618F4F601B7BEE895C0E0D1E017
:107EE00062D089930C17E1F7F0E0CF16F0E7DF06D8
:107EF00018F0F601B7BEE89568D007B600FCFDCFD4
:107F0000A601A0E0B1E02C9130E011968C91119780
:107F100090E0982F8827822B932B1296FA010C0160
:107F200087BEE89511244E5F5F4FF1E0A038BF0790
:107F300051F7F601A7BEE89507B600FCFDCF97BE46
:107F4000E89526C08437B1F42ED02DD0F82E2BD052
:107F50003CD0F601EF2C8F010F5F1F4F84911BD097
:107F6000EA94F801C1F70894C11CD11CFA94CF0C13
:107F7000D11C0EC0853739F428D08EE10CD085E9AC
:107F80000AD08FE07ACF813511F488E018D01DD067
:107F900080E101D065CF982F8091C00085FFFCCF94
:107FA0009093C60008958091C00087FFFCCF809118
:107FB000C00084FD01C0A8958091C6000895E0E648
:107FC000F0E098E1908380830895EDDF803219F02E
:107FD00088E0F5DFFFCF84E1DECF1F93182FE3DFCA
:107FE0001150E9F7F2DF1F91089580E0E8DFEE27F6
:047FF000FF270994CA
:027FFE00040479
:0400000300007E007B
:00000001FF